{
  "contractName": "carpooling",
  "abi": [
    {
      "constant": true,
      "inputs": [
        {
          "name": "",
          "type": "uint256"
        }
      ],
      "name": "rides",
      "outputs": [
        {
          "name": "origin",
          "type": "string"
        },
        {
          "name": "destination",
          "type": "string"
        },
        {
          "name": "departuretime",
          "type": "uint256"
        },
        {
          "name": "fare",
          "type": "uint8"
        },
        {
          "name": "seats",
          "type": "uint8"
        }
      ],
      "payable": false,
      "stateMutability": "view",
      "type": "function"
    },
    {
      "constant": true,
      "inputs": [
        {
          "name": "",
          "type": "uint256"
        }
      ],
      "name": "rideowner",
      "outputs": [
        {
          "name": "",
          "type": "address"
        }
      ],
      "payable": false,
      "stateMutability": "view",
      "type": "function"
    },
    {
      "constant": false,
      "inputs": [
        {
          "name": "_origin",
          "type": "string"
        },
        {
          "name": "_destination",
          "type": "string"
        },
        {
          "name": "_departuretime",
          "type": "uint256"
        },
        {
          "name": "_seats",
          "type": "uint8"
        },
        {
          "name": "_fare",
          "type": "uint8"
        }
      ],
      "name": "createride",
      "outputs": [],
      "payable": false,
      "stateMutability": "nonpayable",
      "type": "function"
    },
    {
      "constant": true,
      "inputs": [
        {
          "name": "i",
          "type": "uint256"
        },
        {
          "name": "__origin",
          "type": "string"
        },
        {
          "name": "__destination",
          "type": "string"
        }
      ],
      "name": "searchride",
      "outputs": [
        {
          "name": "origin",
          "type": "string"
        },
        {
          "name": "destination",
          "type": "string"
        },
        {
          "name": "departuretime",
          "type": "uint256"
        },
        {
          "name": "fare",
          "type": "uint8"
        },
        {
          "name": "seats",
          "type": "uint8"
        }
      ],
      "payable": false,
      "stateMutability": "view",
      "type": "function"
    }
  ],
  "bytecode": "0x6080604052600060015534801561001557600080fd5b50610e39806100256000396000f3fe608060405260043610610062576000357c0100000000000000000000000000000000000000000000000000000000900463ffffffff16806348885fed146100675780635205f112146102d6578063cfb8b81314610417578063dbd150e214610492575b600080fd5b34801561007357600080fd5b506101ce6004803603606081101561008a57600080fd5b8101908080359060200190929190803590602001906401000000008111156100b157600080fd5b8201836020820111156100c357600080fd5b803590602001918460018302840111640100000000831117156100e557600080fd5b91908080601f016020809104026020016040519081016040528093929190818152602001838380828437600081840152601f19601f8201169050808301925050505050505091929192908035906020019064010000000081111561014857600080fd5b82018360208201111561015a57600080fd5b8035906020019184600183028401116401000000008311171561017c57600080fd5b91908080601f016020809104026020016040519081016040528093929190818152602001838380828437600081840152601f19601f820116905080830192505050505050509192919290505050610615565b6040518080602001806020018681526020018560ff1660ff1681526020018460ff1660ff168152602001838103835288818151815260200191508051906020019080838360005b83811015610230578082015181840152602081019050610215565b50505050905090810190601f16801561025d5780820380516001836020036101000a031916815260200191505b50838103825287818151815260200191508051906020019080838360005b8381101561029657808201518184015260208101905061027b565b50505050905090810190601f1680156102c35780820380516001836020036101000a031916815260200191505b5097505050505050505060405180910390f35b3480156102e257600080fd5b5061030f600480360360208110156102f957600080fd5b8101908080359060200190929190505050610a56565b6040518080602001806020018681526020018560ff1660ff1681526020018460ff1660ff168152602001838103835288818151815260200191508051906020019080838360005b83811015610371578082015181840152602081019050610356565b50505050905090810190601f16801561039e5780820380516001836020036101000a031916815260200191505b50838103825287818151815260200191508051906020019080838360005b838110156103d75780820151818401526020810190506103bc565b50505050905090810190601f1680156104045780820380516001836020036101000a031916815260200191505b5097505050505050505060405180910390f35b34801561042357600080fd5b506104506004803603602081101561043a57600080fd5b8101908080359060200190929190505050610be5565b604051808273ffffffffffffffffffffffffffffffffffffffff1673ffffffffffffffffffffffffffffffffffffffff16815260200191505060405180910390f35b34801561049e57600080fd5b50610613600480360360a08110156104b557600080fd5b81019080803590602001906401000000008111156104d257600080fd5b8201836020820111156104e457600080fd5b8035906020019184600183028401116401000000008311171561050657600080fd5b91908080601f016020809104026020016040519081016040528093929190818152602001838380828437600081840152601f19601f8201169050808301925050505050505091929192908035906020019064010000000081111561056957600080fd5b82018360208201111561057b57600080fd5b8035906020019184600183028401116401000000008311171561059d57600080fd5b91908080601f016020809104026020016040519081016040528093929190818152602001838380828437600081840152601f19601f82011690508083019250505050505050919291929080359060200190929190803560ff169060200190929190803560ff169060200190929190505050610c18565b005b6060806000806000866040516020018082805190602001908083835b6020831015156106565780518252602082019150602081019050602083039250610631565b6001836020036101000a038019825116818451168082178552505050505050905001915050604051602081830303815290604052805190602001206002898154811015156106a057fe5b9060005260206000209060040201600001604051602001808280546001816001161561010002031660029004801561070f5780601f106106ed57610100808354040283529182019161070f565b820191906000526020600020905b8154815290600101906020018083116106fb575b5050915050604051602081830303815290604052805190602001201480156108415750856040516020018082805190602001908083835b60208310151561076b5780518252602082019150602081019050602083039250610746565b6001836020036101000a038019825116818451168082178552505050505050905001915050604051602081830303815290604052805190602001206002898154811015156107b557fe5b906000526020600020906004020160010160405160200180828054600181600116156101000203166002900480156108245780601f10610802576101008083540402835291820191610824565b820191906000526020600020905b815481529060010190602001808311610810575b505091505060405160208183030381529060405280519060200120145b15610a4a5760028881548110151561085557fe5b906000526020600020906004020160000160028981548110151561087557fe5b906000526020600020906004020160010160028a81548110151561089557fe5b90600052602060002090600402016002015460028b8154811015156108b657fe5b906000526020600020906004020160030160009054906101000a900460ff1660028c8154811015156108e457fe5b906000526020600020906004020160030160019054906101000a900460ff16848054600181600116156101000203166002900480601f0160208091040260200160405190810160405280929190818152602001828054600181600116156101000203166002900480156109985780601f1061096d57610100808354040283529160200191610998565b820191906000526020600020905b81548152906001019060200180831161097b57829003601f168201915b50505050509450838054600181600116156101000203166002900480601f016020809104026020016040519081016040528092919081815260200182805460018160011615610100020316600290048015610a345780601f10610a0957610100808354040283529160200191610a34565b820191906000526020600020905b815481529060010190602001808311610a1757829003601f168201915b5050505050935094509450945094509450610a4b565b5b939792965093509350565b600281815481101515610a6557fe5b9060005260206000209060040201600091509050806000018054600181600116156101000203166002900480601f016020809104026020016040519081016040528092919081815260200182805460018160011615610100020316600290048015610b115780601f10610ae657610100808354040283529160200191610b11565b820191906000526020600020905b815481529060010190602001808311610af457829003601f168201915b505050505090806001018054600181600116156101000203166002900480601f016020809104026020016040519081016040528092919081815260200182805460018160011615610100020316600290048015610baf5780601f10610b8457610100808354040283529160200191610baf565b820191906000526020600020905b815481529060010190602001808311610b9257829003601f168201915b5050505050908060020154908060030160009054906101000a900460ff16908060030160019054906101000a900460ff16905085565b60006020528060005260406000206000915054906101000a900473ffffffffffffffffffffffffffffffffffffffff1681565b600260a0604051908101604052808781526020018681526020018581526020018460ff1681526020018360ff16815250908060018154018082558091505090600182039060005260206000209060040201600090919290919091506000820151816000019080519060200190610c8f929190610d68565b506020820151816001019080519060200190610cac929190610d68565b506040820151816002015560608201518160030160006101000a81548160ff021916908360ff16021790555060808201518160030160016101000a81548160ff021916908360ff16021790555050505033600080600154815260200190815260200160002060006101000a81548173ffffffffffffffffffffffffffffffffffffffff021916908373ffffffffffffffffffffffffffffffffffffffff1602179055506001600081548092919060010191905055505050505050565b828054600181600116156101000203166002900490600052602060002090601f016020900481019282601f10610da957805160ff1916838001178555610dd7565b82800160010185558215610dd7579182015b82811115610dd6578251825591602001919060010190610dbb565b5b509050610de49190610de8565b5090565b610e0a91905b80821115610e06576000816000905550600101610dee565b5090565b9056fea165627a7a723058203ce5f16584fa0b048c3b971c4ede67892751ac4ed01816404abe08e04f09a7990029",
  "source": "// SPDX-License-Identifier: MIT\npragma solidity >=0.4.22 <0.9.0;\n\ncontract carpooling {\n    struct human {\n        string name;\n        uint8 age;\n        string gender;\n    }\n    struct ride {\n        string origin;\n        string destination;\n        uint departuretime;\n        uint8 fare;\n        uint8 seats;\n    }\n\n    mapping (uint => address) public rideowner;\n    uint ridecount = 0;\n    ride[] public rides;\n\n    function createride(string memory _origin, string memory _destination, uint _departuretime, uint8 _seats, uint8 _fare) public {\n        rides.push(ride(_origin, _destination, _departuretime, _seats,_fare));\n        rideowner[ridecount] = msg.sender;\n        ridecount++;\n    }  \n\n\n     function searchride(uint i, string memory __origin, string memory __destination)public view returns(string memory origin, string memory destination, uint departuretime, uint8 fare, uint8 seats) {\n        if (keccak256(abi.encodePacked(rides[i].origin)) == keccak256(abi.encodePacked(__origin)) && keccak256(abi.encodePacked(rides[i].destination)) == keccak256(abi.encodePacked(__destination))) { \n            return (rides[i].origin, rides[i].destination, rides[i].departuretime, rides[i].fare, rides[i].seats);\n        }        \n    }\n\n}",
  "sourcePath": "/Users/pawan/Documents/Code/OPEN P2P DAPP/OSC-P2P-Carpooling-DAPP/contracts/carpooling.sol",
  "compiler": {
    "name": "solc",
    "version": "0.5.0+commit.1d4f565a.Emscripten.clang"
  },
  "schemaVersion": "3.0.1",
  "updatedAt": "2022-07-17T16:16:41.275Z",
  "devdoc": {
    "methods": {}
  },
  "userdoc": {
    "methods": {}
  }
}